{
  "contractName": "Cat",
  "abi": [
    {
      "constant": false,
      "inputs": [
        {
          "internalType": "string",
          "name": "_id",
          "type": "string"
        },
        {
          "internalType": "string",
          "name": "_name",
          "type": "string"
        },
        {
          "internalType": "string",
          "name": "_color",
          "type": "string"
        },
        {
          "internalType": "string",
          "name": "_catType",
          "type": "string"
        },
        {
          "internalType": "uint8",
          "name": "_age",
          "type": "uint8"
        }
      ],
      "name": "createCat",
      "outputs": [],
      "payable": false,
      "stateMutability": "nonpayable",
      "type": "function"
    },
    {
      "constant": true,
      "inputs": [
        {
          "internalType": "string",
          "name": "_id",
          "type": "string"
        }
      ],
      "name": "findCatById",
      "outputs": [
        {
          "internalType": "string",
          "name": "",
          "type": "string"
        },
        {
          "internalType": "string",
          "name": "",
          "type": "string"
        },
        {
          "internalType": "string",
          "name": "",
          "type": "string"
        },
        {
          "internalType": "string",
          "name": "",
          "type": "string"
        },
        {
          "internalType": "uint8",
          "name": "",
          "type": "uint8"
        }
      ],
      "payable": false,
      "stateMutability": "view",
      "type": "function"
    },
    {
      "constant": false,
      "inputs": [
        {
          "internalType": "string",
          "name": "_id",
          "type": "string"
        },
        {
          "internalType": "string",
          "name": "_name",
          "type": "string"
        },
        {
          "internalType": "string",
          "name": "_color",
          "type": "string"
        },
        {
          "internalType": "string",
          "name": "_catType",
          "type": "string"
        },
        {
          "internalType": "uint8",
          "name": "_age",
          "type": "uint8"
        }
      ],
      "name": "updateCat",
      "outputs": [],
      "payable": false,
      "stateMutability": "nonpayable",
      "type": "function"
    },
    {
      "constant": false,
      "inputs": [
        {
          "internalType": "string",
          "name": "_id",
          "type": "string"
        }
      ],
      "name": "deleteCat",
      "outputs": [],
      "payable": false,
      "stateMutability": "nonpayable",
      "type": "function"
    }
  ],
  "bytecode": "0x608060405234801561001057600080fd5b5061158b806100206000396000f3fe608060405234801561001057600080fd5b506004361061004c5760003560e01c806334b517e614610051578063451abe21146102d6578063c560f8ab14610563578063e595e647146107f0575b600080fd5b61010a6004803603602081101561006757600080fd5b810190808035906020019064010000000081111561008457600080fd5b82018360208201111561009657600080fd5b803590602001918460018302840111640100000000831117156100b857600080fd5b91908080601f016020809104026020016040519081016040528093929190818152602001838380828437600081840152601f19601f8201169050808301925050505050505091929192905050506108ab565b60405180806020018060200180602001806020018660ff1660ff16815260200185810385528a818151815260200191508051906020019080838360005b83811015610162578082015181840152602081019050610147565b50505050905090810190601f16801561018f5780820380516001836020036101000a031916815260200191505b50858103845289818151815260200191508051906020019080838360005b838110156101c85780820151818401526020810190506101ad565b50505050905090810190601f1680156101f55780820380516001836020036101000a031916815260200191505b50858103835288818151815260200191508051906020019080838360005b8381101561022e578082015181840152602081019050610213565b50505050905090810190601f16801561025b5780820380516001836020036101000a031916815260200191505b50858103825287818151815260200191508051906020019080838360005b83811015610294578082015181840152602081019050610279565b50505050905090810190601f1680156102c15780820380516001836020036101000a031916815260200191505b50995050505050505050505060405180910390f35b610561600480360360a08110156102ec57600080fd5b810190808035906020019064010000000081111561030957600080fd5b82018360208201111561031b57600080fd5b8035906020019184600183028401116401000000008311171561033d57600080fd5b91908080601f016020809104026020016040519081016040528093929190818152602001838380828437600081840152601f19601f820116905080830192505050505050509192919290803590602001906401000000008111156103a057600080fd5b8201836020820111156103b257600080fd5b803590602001918460018302840111640100000000831117156103d457600080fd5b91908080601f016020809104026020016040519081016040528093929190818152602001838380828437600081840152601f19601f8201169050808301925050505050505091929192908035906020019064010000000081111561043757600080fd5b82018360208201111561044957600080fd5b8035906020019184600183028401116401000000008311171561046b57600080fd5b91908080601f016020809104026020016040519081016040528093929190818152602001838380828437600081840152601f19601f820116905080830192505050505050509192919290803590602001906401000000008111156104ce57600080fd5b8201836020820111156104e057600080fd5b8035906020019184600183028401116401000000008311171561050257600080fd5b91908080601f016020809104026020016040519081016040528093929190818152602001838380828437600081840152601f19601f820116905080830192505050505050509192919290803560ff169060200190929190505050610d01565b005b6107ee600480360360a081101561057957600080fd5b810190808035906020019064010000000081111561059657600080fd5b8201836020820111156105a857600080fd5b803590602001918460018302840111640100000000831117156105ca57600080fd5b91908080601f016020809104026020016040519081016040528093929190818152602001838380828437600081840152601f19601f8201169050808301925050505050505091929192908035906020019064010000000081111561062d57600080fd5b82018360208201111561063f57600080fd5b8035906020019184600183028401116401000000008311171561066157600080fd5b91908080601f016020809104026020016040519081016040528093929190818152602001838380828437600081840152601f19601f820116905080830192505050505050509192919290803590602001906401000000008111156106c457600080fd5b8201836020820111156106d657600080fd5b803590602001918460018302840111640100000000831117156106f857600080fd5b91908080601f016020809104026020016040519081016040528093929190818152602001838380828437600081840152601f19601f8201169050808301925050505050505091929192908035906020019064010000000081111561075b57600080fd5b82018360208201111561076d57600080fd5b8035906020019184600183028401116401000000008311171561078f57600080fd5b91908080601f016020809104026020016040519081016040528093929190818152602001838380828437600081840152601f19601f820116905080830192505050505050509192919290803560ff169060200190929190505050610ee3565b005b6108a96004803603602081101561080657600080fd5b810190808035906020019064010000000081111561082357600080fd5b82018360208201111561083557600080fd5b8035906020019184600183028401116401000000008311171561085757600080fd5b91908080601f016020809104026020016040519081016040528093929190818152602001838380828437600081840152601f19601f820116905080830192505050505050509192919290505050611181565b005b606080606080600080865111610929576040517f08c379a00000000000000000000000000000000000000000000000000000000081526004018080602001828103825260148152602001807f4944206d757374206e6f7420626520656d70747900000000000000000000000081525060200191505060405180910390fd5b6109316113b7565b6000876040518082805190602001908083835b602083106109675780518252602082019150602081019050602083039250610944565b6001836020036101000a03801982511681845116808217855250505050505090500191505090815260200160405180910390206040518060a0016040529081600082018054600181600116156101000203166002900480601f016020809104026020016040519081016040528092919081815260200182805460018160011615610100020316600290048015610a3e5780601f10610a1357610100808354040283529160200191610a3e565b820191906000526020600020905b815481529060010190602001808311610a2157829003601f168201915b50505050508152602001600182018054600181600116156101000203166002900480601f016020809104026020016040519081016040528092919081815260200182805460018160011615610100020316600290048015610ae05780601f10610ab557610100808354040283529160200191610ae0565b820191906000526020600020905b815481529060010190602001808311610ac357829003601f168201915b50505050508152602001600282018054600181600116156101000203166002900480601f016020809104026020016040519081016040528092919081815260200182805460018160011615610100020316600290048015610b825780601f10610b5757610100808354040283529160200191610b82565b820191906000526020600020905b815481529060010190602001808311610b6557829003601f168201915b50505050508152602001600382018054600181600116156101000203166002900480601f016020809104026020016040519081016040528092919081815260200182805460018160011615610100020316600290048015610c245780601f10610bf957610100808354040283529160200191610c24565b820191906000526020600020905b815481529060010190602001808311610c0757829003601f168201915b505050505081526020016004820160009054906101000a900460ff1660ff1660ff1681525050905060008160000151511415610cc8576040517f08c379a000000000000000000000000000000000000000000000000000000000815260040180806020018281038252600d8152602001807f436174206e6f7420666f756e640000000000000000000000000000000000000081525060200191505060405180910390fd5b80600001518160200151826040015183606001518460800151849450839350829250819150955095509550955095505091939590929450565b6000855111610d78576040517f08c379a00000000000000000000000000000000000000000000000000000000081526004018080602001828103825260148152602001807f4944206d757374206e6f7420626520656d70747900000000000000000000000081525060200191505060405180910390fd5b600080866040518082805190602001908083835b60208310610daf5780518252602082019150602081019050602083039250610d8c565b6001836020036101000a038019825116818451168082178552505050505050905001915050908152602001604051809103902090506000816000018054600181600116156101000203166002900490501415610e73576040517f08c379a000000000000000000000000000000000000000000000000000000000815260040180806020018281038252600d8152602001807f436174206e6f7420666f756e640000000000000000000000000000000000000081525060200191505060405180910390fd5b84816001019080519060200190610e8b9291906113e9565b5083816002019080519060200190610ea49291906113e9565b5082816003019080519060200190610ebd9291906113e9565b50818160040160006101000a81548160ff021916908360ff160217905550505050505050565b6000855111610f5a576040517f08c379a00000000000000000000000000000000000000000000000000000000081526004018080602001828103825260148152602001807f4944206d757374206e6f7420626520656d70747900000000000000000000000081525060200191505060405180910390fd5b600080866040518082805190602001908083835b60208310610f915780518252602082019150602081019050602083039250610f6e565b6001836020036101000a03801982511681845116808217855250505050505090500191505090815260200160405180910390206000018054600181600116156101000203166002900490501461104f576040517f08c379a00000000000000000000000000000000000000000000000000000000081526004018080602001828103825260128152602001807f43617420616c726561647920657869737473000000000000000000000000000081525060200191505060405180910390fd5b6040518060a001604052808681526020018581526020018481526020018381526020018260ff168152506000866040518082805190602001908083835b602083106110af578051825260208201915060208101905060208303925061108c565b6001836020036101000a038019825116818451168082178552505050505050905001915050908152602001604051809103902060008201518160000190805190602001906110fe929190611469565b50602082015181600101908051906020019061111b929190611469565b506040820151816002019080519060200190611138929190611469565b506060820151816003019080519060200190611155929190611469565b5060808201518160040160006101000a81548160ff021916908360ff1602179055509050505050505050565b60008151116111f8576040517f08c379a00000000000000000000000000000000000000000000000000000000081526004018080602001828103825260148152602001807f4944206d757374206e6f7420626520656d70747900000000000000000000000081525060200191505060405180910390fd5b600080826040518082805190602001908083835b6020831061122f578051825260208201915060208101905060208303925061120c565b6001836020036101000a0380198251168184511680821785525050505050509050019150509081526020016040518091039020905060008160000180546001816001161561010002031660029004905014156112f3576040517f08c379a000000000000000000000000000000000000000000000000000000000815260040180806020018281038252600d8152602001807f436174206e6f7420666f756e640000000000000000000000000000000000000081525060200191505060405180910390fd5b6000826040518082805190602001908083835b602083106113295780518252602082019150602081019050602083039250611306565b6001836020036101000a03801982511681845116808217855250505050505090500191505090815260200160405180910390206000808201600061136d91906114e9565b60018201600061137d91906114e9565b60028201600061138d91906114e9565b60038201600061139d91906114e9565b6004820160006101000a81549060ff021916905550505050565b6040518060a0016040528060608152602001606081526020016060815260200160608152602001600060ff1681525090565b828054600181600116156101000203166002900490600052602060002090601f016020900481019282601f1061142a57805160ff1916838001178555611458565b82800160010185558215611458579182015b8281111561145757825182559160200191906001019061143c565b5b5090506114659190611531565b5090565b828054600181600116156101000203166002900490600052602060002090601f016020900481019282601f106114aa57805160ff19168380011785556114d8565b828001600101855582156114d8579182015b828111156114d75782518255916020019190600101906114bc565b5b5090506114e59190611531565b5090565b50805460018160011615610100020316600290046000825580601f1061150f575061152e565b601f01602090049060005260206000209081019061152d9190611531565b5b50565b61155391905b8082111561154f576000816000905550600101611537565b5090565b9056fea265627a7a72315820a77b9d5dde41b00a7f01b8c5387202ae079413dd2f2364b126dfe1e1c4e84a2764736f6c63430005100032",
  "source": "// SPDX-License-Identifier: MIT\r\npragma solidity >=0.4.22 <0.9.0;\r\n\r\ncontract Cat {\r\n    struct CatInfo {\r\n        string id;\r\n        string name;\r\n        string color;\r\n        string catType;\r\n        uint8 age;\r\n    }\r\n\r\n    mapping(string => CatInfo) cats;\r\n\r\n    function createCat(string memory _id, string memory _name, string memory _color, string memory _catType, uint8 _age) public {\r\n        require(bytes(_id).length > 0, \"ID must not be empty\");\r\n        require(\r\n            bytes(cats[_id].id).length == 0,\r\n            \"Cat already exists\"\r\n        );\r\n\r\n        cats[_id] = CatInfo(_id, _name, _color, _catType, _age);\r\n    }\r\n\r\n    function findCatById(string memory _id) public view returns (string memory, string memory, string memory, string memory, uint8) {\r\n        require(bytes(_id).length > 0, \"ID must not be empty\");\r\n\r\n        CatInfo memory cat = cats[_id];\r\n        require(bytes(cat.id).length != 0, \"Cat not found\");\r\n\r\n        return (cat.id, cat.name, cat.color, cat.catType, cat.age);\r\n    }\r\n\r\n    function updateCat(string memory _id, string memory _name, string memory _color, string memory _catType, uint8 _age) public {\r\n        require(bytes(_id).length > 0, \"ID must not be empty\");\r\n\r\n        \r\n        CatInfo storage cat = cats[_id];\r\n        require(bytes(cat.id).length != 0, \"Cat not found\");\r\n\r\n        cat.name = _name;\r\n        cat.color = _color;\r\n        cat.catType = _catType;\r\n        cat.age = _age;\r\n    }\r\n\r\n    function deleteCat(string memory _id) public {\r\n        require(bytes(_id).length > 0, \"ID must not be empty\");\r\n\r\n        CatInfo storage cat = cats[_id];\r\n        require(bytes(cat.id).length != 0, \"Cat not found\");\r\n\r\n        delete cats[_id];\r\n    }\r\n}",
  "sourcePath": "D:\\Dev\\HomeTask\\CatAdoption\\Solidity_SmatContract\\contracts\\cat.sol",
  "compiler": {
    "name": "solc",
    "version": "0.5.16+commit.9c3226ce.Emscripten.clang"
  },
  "schemaVersion": "3.4.16",
  "updatedAt": "2024-04-13T23:11:13.560Z",
  "networkType": "ethereum",
  "devdoc": {
    "methods": {}
  },
  "userdoc": {
    "methods": {}
  }
}