{
  "contractName": "User",
  "abi": [
    {
      "constant": false,
      "inputs": [
        {
          "internalType": "string",
          "name": "_username",
          "type": "string"
        },
        {
          "internalType": "string",
          "name": "_password",
          "type": "string"
        }
      ],
      "name": "registerUser",
      "outputs": [],
      "payable": false,
      "stateMutability": "nonpayable",
      "type": "function"
    },
    {
      "constant": true,
      "inputs": [
        {
          "internalType": "string",
          "name": "_username",
          "type": "string"
        }
      ],
      "name": "findUserByUsername",
      "outputs": [
        {
          "internalType": "string",
          "name": "",
          "type": "string"
        },
        {
          "internalType": "string",
          "name": "",
          "type": "string"
        }
      ],
      "payable": false,
      "stateMutability": "view",
      "type": "function"
    }
  ],
  "bytecode": "0x608060405234801561001057600080fd5b5061091e806100206000396000f3fe608060405234801561001057600080fd5b50600436106100365760003560e01c80631d2e4afd1461003b5780633a8a55271461018d575b600080fd5b61018b6004803603604081101561005157600080fd5b810190808035906020019064010000000081111561006e57600080fd5b82018360208201111561008057600080fd5b803590602001918460018302840111640100000000831117156100a257600080fd5b91908080601f016020809104026020016040519081016040528093929190818152602001838380828437600081840152601f19601f8201169050808301925050505050505091929192908035906020019064010000000081111561010557600080fd5b82018360208201111561011757600080fd5b8035906020019184600183028401116401000000008311171561013957600080fd5b91908080601f016020809104026020016040519081016040528093929190818152602001838380828437600081840152601f19601f82011690508083019250505050505050919291929050505061032d565b005b610246600480360360208110156101a357600080fd5b81019080803590602001906401000000008111156101c057600080fd5b8201836020820111156101d257600080fd5b803590602001918460018302840111640100000000831117156101f457600080fd5b91908080601f016020809104026020016040519081016040528093929190818152602001838380828437600081840152601f19601f820116905080830192505050505050509192919290505050610558565b604051808060200180602001838103835285818151815260200191508051906020019080838360005b8381101561028a57808201518184015260208101905061026f565b50505050905090810190601f1680156102b75780820380516001836020036101000a031916815260200191505b50838103825284818151815260200191508051906020019080838360005b838110156102f05780820151818401526020810190506102d5565b50505050905090810190601f16801561031d5780820380516001836020036101000a031916815260200191505b5094505050505060405180910390f35b60008251116103a4576040517f08c379a000000000000000000000000000000000000000000000000000000000815260040180806020018281038252601a8152602001807f557365726e616d65206d757374206e6f7420626520656d70747900000000000081525060200191505060405180910390fd5b600080836040518082805190602001908083835b602083106103db57805182526020820191506020810190506020830392506103b8565b6001836020036101000a038019825116818451168082178552505050505050905001915050908152602001604051809103902060000180546001816001161561010002031660029004905014610499576040517f08c379a00000000000000000000000000000000000000000000000000000000081526004018080602001828103825260178152602001807f557365726e616d6520616c72656164792065786973747300000000000000000081525060200191505060405180910390fd5b6040518060400160405280838152602001828152506000836040518082805190602001908083835b602083106104e457805182526020820191506020810190506020830392506104c1565b6001836020036101000a0380198251168184511680821785525050505050509050019150509081526020016040518091039020600082015181600001908051906020019061053392919061082a565b50602082015181600101908051906020019061055092919061082a565b509050505050565b60608060008351116105d2576040517f08c379a000000000000000000000000000000000000000000000000000000000815260040180806020018281038252601a8152602001807f557365726e616d65206d757374206e6f7420626520656d70747900000000000081525060200191505060405180910390fd5b6105da6108aa565b6000846040518082805190602001908083835b6020831061061057805182526020820191506020810190506020830392506105ed565b6001836020036101000a0380198251168184511680821785525050505050509050019150509081526020016040518091039020604051806040016040529081600082018054600181600116156101000203166002900480601f0160208091040260200160405190810160405280929190818152602001828054600181600116156101000203166002900480156106e75780601f106106bc576101008083540402835291602001916106e7565b820191906000526020600020905b8154815290600101906020018083116106ca57829003601f168201915b50505050508152602001600182018054600181600116156101000203166002900480601f0160208091040260200160405190810160405280929190818152602001828054600181600116156101000203166002900480156107895780601f1061075e57610100808354040283529160200191610789565b820191906000526020600020905b81548152906001019060200180831161076c57829003601f168201915b505050505081525050905060008160000151511415610810576040517f08c379a000000000000000000000000000000000000000000000000000000000815260040180806020018281038252600e8152602001807f55736572206e6f7420666f756e6400000000000000000000000000000000000081525060200191505060405180910390fd5b806000015181602001518191508090509250925050915091565b828054600181600116156101000203166002900490600052602060002090601f016020900481019282601f1061086b57805160ff1916838001178555610899565b82800160010185558215610899579182015b8281111561089857825182559160200191906001019061087d565b5b5090506108a691906108c4565b5090565b604051806040016040528060608152602001606081525090565b6108e691905b808211156108e25760008160009055506001016108ca565b5090565b9056fea265627a7a723158209c2705b081afd3d7049935a4b7a779193441e861643f4559f60b316aa9ff3e6264736f6c63430005100032",
  "source": "// SPDX-License-Identifier: MIT\r\npragma solidity >=0.4.22 <0.9.0;\r\n\r\ncontract User {\r\n    struct UserInfo {\r\n        string username;\r\n        string password;\r\n    }\r\n\r\n    mapping(string => UserInfo) users;\r\n\r\n    function registerUser(string memory _username, string memory _password) public {\r\n        require(bytes(_username).length > 0, \"Username must not be empty\");\r\n        require(\r\n            bytes(users[_username].username).length == 0,\r\n            \"Username already exists\"\r\n        );\r\n\r\n        users[_username] = UserInfo(_username, _password);\r\n    }\r\n\r\n    function findUserByUsername(string memory _username) public view returns (string memory, string memory) {\r\n        require(bytes(_username).length > 0, \"Username must not be empty\");\r\n\r\n        UserInfo memory user = users[_username];\r\n        require(bytes(user.username).length != 0, \"User not found\");\r\n\r\n        return (user.username, user.password);\r\n    }\r\n}",
  "sourcePath": "D:\\Dev\\HomeTask\\CatAdoption\\Solidity_SmatContract\\contracts\\user.sol",
  "compiler": {
    "name": "solc",
    "version": "0.5.16+commit.9c3226ce.Emscripten.clang"
  },
  "schemaVersion": "3.4.16",
  "updatedAt": "2024-04-13T22:26:06.349Z",
  "networkType": "ethereum",
  "devdoc": {
    "methods": {}
  },
  "userdoc": {
    "methods": {}
  }
}