{
  "contractName": "Cat",
  "abi": [
    {
      "constant": true,
      "inputs": [],
      "name": "getAllCats",
      "outputs": [
        {
          "components": [
            {
              "internalType": "string",
              "name": "id",
              "type": "string"
            },
            {
              "internalType": "string",
              "name": "name",
              "type": "string"
            },
            {
              "internalType": "string",
              "name": "color",
              "type": "string"
            },
            {
              "internalType": "string",
              "name": "catType",
              "type": "string"
            },
            {
              "internalType": "uint8",
              "name": "age",
              "type": "uint8"
            }
          ],
          "internalType": "struct Cat.CatInfo[]",
          "name": "",
          "type": "tuple[]"
        }
      ],
      "payable": false,
      "stateMutability": "view",
      "type": "function"
    },
    {
      "constant": false,
      "inputs": [
        {
          "internalType": "string",
          "name": "_id",
          "type": "string"
        },
        {
          "internalType": "string",
          "name": "_name",
          "type": "string"
        },
        {
          "internalType": "string",
          "name": "_color",
          "type": "string"
        },
        {
          "internalType": "string",
          "name": "_catType",
          "type": "string"
        },
        {
          "internalType": "uint8",
          "name": "_age",
          "type": "uint8"
        }
      ],
      "name": "createCat",
      "outputs": [],
      "payable": false,
      "stateMutability": "nonpayable",
      "type": "function"
    },
    {
      "constant": true,
      "inputs": [
        {
          "internalType": "string",
          "name": "_id",
          "type": "string"
        }
      ],
      "name": "findCatById",
      "outputs": [
        {
          "internalType": "string",
          "name": "",
          "type": "string"
        },
        {
          "internalType": "string",
          "name": "",
          "type": "string"
        },
        {
          "internalType": "string",
          "name": "",
          "type": "string"
        },
        {
          "internalType": "string",
          "name": "",
          "type": "string"
        },
        {
          "internalType": "uint8",
          "name": "",
          "type": "uint8"
        }
      ],
      "payable": false,
      "stateMutability": "view",
      "type": "function"
    },
    {
      "constant": false,
      "inputs": [
        {
          "internalType": "string",
          "name": "_id",
          "type": "string"
        },
        {
          "internalType": "string",
          "name": "_name",
          "type": "string"
        },
        {
          "internalType": "string",
          "name": "_color",
          "type": "string"
        },
        {
          "internalType": "string",
          "name": "_catType",
          "type": "string"
        },
        {
          "internalType": "uint8",
          "name": "_age",
          "type": "uint8"
        }
      ],
      "name": "updateCat",
      "outputs": [],
      "payable": false,
      "stateMutability": "nonpayable",
      "type": "function"
    },
    {
      "constant": false,
      "inputs": [
        {
          "internalType": "string",
          "name": "_id",
          "type": "string"
        }
      ],
      "name": "deleteCat",
      "outputs": [],
      "payable": false,
      "stateMutability": "nonpayable",
      "type": "function"
    }
  ],
  "bytecode": "0x608060405234801561001057600080fd5b50611736806100206000396000f3fe608060405234801561001057600080fd5b50600436106100575760003560e01c806303a478961461005c57806334b517e61461007a578063451abe21146100ae578063c560f8ab146100ca578063e595e647146100e6575b600080fd5b610064610102565b60405161007191906114a1565b60405180910390f35b610094600480360361008f9190810190611038565b61046a565b6040516100a59594939291906114c3565b60405180910390f35b6100c860048036036100c39190810190611079565b61080f565b005b6100e460048036036100df9190810190611079565b610940565b005b61010060048036036100fb9190810190611038565b610b21565b005b60608060018054905060405190808252806020026020018201604052801561014457816020015b610131610d77565b8152602001906001900390816101295790505b50905060008090505b6001805490508110156104625760006001828154811061016957fe5b90600052602060002001604051610180919061148a565b90815260200160405180910390206040518060a0016040529081600082018054600181600116156101000203166002900480601f0160208091040260200160405190810160405280929190818152602001828054600181600116156101000203166002900480156102325780601f1061020757610100808354040283529160200191610232565b820191906000526020600020905b81548152906001019060200180831161021557829003601f168201915b50505050508152602001600182018054600181600116156101000203166002900480601f0160208091040260200160405190810160405280929190818152602001828054600181600116156101000203166002900480156102d45780601f106102a9576101008083540402835291602001916102d4565b820191906000526020600020905b8154815290600101906020018083116102b757829003601f168201915b50505050508152602001600282018054600181600116156101000203166002900480601f0160208091040260200160405190810160405280929190818152602001828054600181600116156101000203166002900480156103765780601f1061034b57610100808354040283529160200191610376565b820191906000526020600020905b81548152906001019060200180831161035957829003601f168201915b50505050508152602001600382018054600181600116156101000203166002900480601f0160208091040260200160405190810160405280929190818152602001828054600181600116156101000203166002900480156104185780601f106103ed57610100808354040283529160200191610418565b820191906000526020600020905b8154815290600101906020018083116103fb57829003601f168201915b505050505081526020016004820160009054906101000a900460ff1660ff1660ff168152505082828151811061044a57fe5b6020026020010181905250808060010191505061014d565b508091505090565b6060806060806000808651116104b5576040517f08c379a00000000000000000000000000000000000000000000000000000000081526004016104ac90611552565b60405180910390fd5b6104bd610da9565b6000876040516104cd9190611473565b90815260200160405180910390206040518060a0016040529081600082018054600181600116156101000203166002900480601f01602080910402602001604051908101604052809291908181526020018280546001816001161561010002031660029004801561057f5780601f106105545761010080835404028352916020019161057f565b820191906000526020600020905b81548152906001019060200180831161056257829003601f168201915b50505050508152602001600182018054600181600116156101000203166002900480601f0160208091040260200160405190810160405280929190818152602001828054600181600116156101000203166002900480156106215780601f106105f657610100808354040283529160200191610621565b820191906000526020600020905b81548152906001019060200180831161060457829003601f168201915b50505050508152602001600282018054600181600116156101000203166002900480601f0160208091040260200160405190810160405280929190818152602001828054600181600116156101000203166002900480156106c35780601f10610698576101008083540402835291602001916106c3565b820191906000526020600020905b8154815290600101906020018083116106a657829003601f168201915b50505050508152602001600382018054600181600116156101000203166002900480601f0160208091040260200160405190810160405280929190818152602001828054600181600116156101000203166002900480156107655780601f1061073a57610100808354040283529160200191610765565b820191906000526020600020905b81548152906001019060200180831161074857829003601f168201915b505050505081526020016004820160009054906101000a900460ff1660ff1660ff16815250509050600081600001515114156107d6576040517f08c379a00000000000000000000000000000000000000000000000000000000081526004016107cd90611532565b60405180910390fd5b80600001518160200151826040015183606001518460800151849450839350829250819150955095509550955095505091939590929450565b6000855111610853576040517f08c379a000000000000000000000000000000000000000000000000000000000815260040161084a90611552565b60405180910390fd5b600080866040516108649190611473565b9081526020016040518091039020905060008160000180546001816001161561010002031660029004905014156108d0576040517f08c379a00000000000000000000000000000000000000000000000000000000081526004016108c790611532565b60405180910390fd5b848160010190805190602001906108e8929190610ddb565b5083816002019080519060200190610901929190610ddb565b508281600301908051906020019061091a929190610ddb565b50818160040160006101000a81548160ff021916908360ff160217905550505050505050565b6000855111610984576040517f08c379a000000000000000000000000000000000000000000000000000000000815260040161097b90611552565b60405180910390fd5b600080866040516109959190611473565b9081526020016040518091039020600001805460018160011615610100020316600290049050146109fb576040517f08c379a00000000000000000000000000000000000000000000000000000000081526004016109f290611572565b60405180910390fd5b6001859080600181540180825580915050906001820390600052602060002001600090919290919091509080519060200190610a38929190610ddb565b50506040518060a001604052808681526020018581526020018481526020018381526020018260ff16815250600086604051610a749190611473565b90815260200160405180910390206000820151816000019080519060200190610a9e929190610e5b565b506020820151816001019080519060200190610abb929190610e5b565b506040820151816002019080519060200190610ad8929190610e5b565b506060820151816003019080519060200190610af5929190610e5b565b5060808201518160040160006101000a81548160ff021916908360ff1602179055509050505050505050565b6000815111610b65576040517f08c379a0000000000000000000000000000000000000000000000000000000008152600401610b5c90611552565b60405180910390fd5b60008082604051610b769190611473565b908152602001604051809103902090506000816000018054600181600116156101000203166002900490501415610be2576040517f08c379a0000000000000000000000000000000000000000000000000000000008152600401610bd990611532565b60405180910390fd5b600082604051610bf29190611473565b908152602001604051809103902060008082016000610c119190610edb565b600182016000610c219190610edb565b600282016000610c319190610edb565b600382016000610c419190610edb565b6004820160006101000a81549060ff0219169055505060008090505b600180549050811015610d725782604051602001610c7b9190611473565b6040516020818303038152906040528051906020012060018281548110610c9e57fe5b90600052602060002001604051602001610cb8919061148a565b604051602081830303815290604052805190602001201415610d655760018080549050038114610d375760018080805490500381548110610cf557fe5b9060005260206000200160018281548110610d0c57fe5b906000526020600020019080546001816001161561010002031660029004610d35929190610f23565b505b6001805480610d4257fe5b600190038181906000526020600020016000610d5e9190610edb565b9055610d72565b8080600101915050610c5d565b505050565b6040518060a0016040528060608152602001606081526020016060815260200160608152602001600060ff1681525090565b6040518060a0016040528060608152602001606081526020016060815260200160608152602001600060ff1681525090565b828054600181600116156101000203166002900490600052602060002090601f016020900481019282601f10610e1c57805160ff1916838001178555610e4a565b82800160010185558215610e4a579182015b82811115610e49578251825591602001919060010190610e2e565b5b509050610e579190610faa565b5090565b828054600181600116156101000203166002900490600052602060002090601f016020900481019282601f10610e9c57805160ff1916838001178555610eca565b82800160010185558215610eca579182015b82811115610ec9578251825591602001919060010190610eae565b5b509050610ed79190610faa565b5090565b50805460018160011615610100020316600290046000825580601f10610f015750610f20565b601f016020900490600052602060002090810190610f1f9190610faa565b5b50565b828054600181600116156101000203166002900490600052602060002090601f016020900481019282601f10610f5c5780548555610f99565b82800160010185558215610f9957600052602060002091601f016020900482015b82811115610f98578254825591600101919060010190610f7d565b5b509050610fa69190610faa565b5090565b610fcc91905b80821115610fc8576000816000905550600101610fb0565b5090565b90565b600082601f830112610fe057600080fd5b8135610ff3610fee826115bf565b611592565b9150808252602083016020830185838301111561100f57600080fd5b61101a838284611689565b50505092915050565b600081359050611032816116dc565b92915050565b60006020828403121561104a57600080fd5b600082013567ffffffffffffffff81111561106457600080fd5b61107084828501610fcf565b91505092915050565b600080600080600060a0868803121561109157600080fd5b600086013567ffffffffffffffff8111156110ab57600080fd5b6110b788828901610fcf565b955050602086013567ffffffffffffffff8111156110d457600080fd5b6110e088828901610fcf565b945050604086013567ffffffffffffffff8111156110fd57600080fd5b61110988828901610fcf565b935050606086013567ffffffffffffffff81111561112657600080fd5b61113288828901610fcf565b925050608061114388828901611023565b9150509295509295909350565b600061115c83836113ca565b905092915050565b600061116f82611610565b611179818561163e565b93508360208202850161118b856115eb565b8060005b858110156111c757848403895281516111a88582611150565b94506111b383611631565b925060208a0199505060018101905061118f565b50829750879550505050505092915050565b60006111e482611626565b6111ee8185611660565b93506111fe818560208601611698565b611207816116cb565b840191505092915050565b600061121d82611626565b6112278185611671565b9350611237818560208601611698565b80840191505092915050565b600061124e8261161b565b611258818561164f565b9350611268818560208601611698565b611271816116cb565b840191505092915050565b60008154600181166000811461129957600181146112be57611302565b607f60028304166112aa8187611671565b955060ff1983168652808601935050611302565b600282046112cc8187611671565b95506112d7856115fb565b60005b828110156112f9578154818901526001820191506020810190506112da565b82880195505050505b505092915050565b6000611317600d83611660565b91507f436174206e6f7420666f756e64000000000000000000000000000000000000006000830152602082019050919050565b6000611357601483611660565b91507f4944206d757374206e6f7420626520656d7074790000000000000000000000006000830152602082019050919050565b6000611397601283611660565b91507f43617420616c72656164792065786973747300000000000000000000000000006000830152602082019050919050565b600060a08301600083015184820360008601526113e78282611243565b915050602083015184820360208601526114018282611243565b9150506040830151848203604086015261141b8282611243565b915050606083015184820360608601526114358282611243565b915050608083015161144a6080860182611455565b508091505092915050565b61145e8161167c565b82525050565b61146d8161167c565b82525050565b600061147f8284611212565b915081905092915050565b6000611496828461127c565b915081905092915050565b600060208201905081810360008301526114bb8184611164565b905092915050565b600060a08201905081810360008301526114dd81886111d9565b905081810360208301526114f181876111d9565b9050818103604083015261150581866111d9565b9050818103606083015261151981856111d9565b90506115286080830184611464565b9695505050505050565b6000602082019050818103600083015261154b8161130a565b9050919050565b6000602082019050818103600083015261156b8161134a565b9050919050565b6000602082019050818103600083015261158b8161138a565b9050919050565b6000604051905081810181811067ffffffffffffffff821117156115b557600080fd5b8060405250919050565b600067ffffffffffffffff8211156115d657600080fd5b601f19601f8301169050602081019050919050565b6000819050602082019050919050565b60008190508160005260206000209050919050565b600081519050919050565b600081519050919050565b600081519050919050565b6000602082019050919050565b600082825260208201905092915050565b600082825260208201905092915050565b600082825260208201905092915050565b600081905092915050565b600060ff82169050919050565b82818337600083830152505050565b60005b838110156116b657808201518184015260208101905061169b565b838111156116c5576000848401525b50505050565b6000601f19601f8301169050919050565b6116e58161167c565b81146116f057600080fd5b5056fea365627a7a72315820ede426bfd0cc540e6c7de534624a83ea019a96fac297ad97637f79eb04b99e9e6c6578706572696d656e74616cf564736f6c63430005100040",
  "source": "// SPDX-License-Identifier: MIT\r\npragma solidity >=0.4.22 <0.9.0;\r\npragma experimental ABIEncoderV2;\r\n\r\ncontract Cat {\r\n    struct CatInfo {\r\n        string id;\r\n        string name;\r\n        string color;\r\n        string catType;\r\n        uint8 age;\r\n    }\r\n\r\n    mapping(string => CatInfo) cats;\r\n    string[] catIds;\r\n\r\n    function getAllCats() public view returns (CatInfo[] memory) {\r\n        CatInfo[] memory allCats = new CatInfo[](catIds.length);\r\n\r\n        for (uint i = 0; i < catIds.length; i++) {\r\n            allCats[i] = cats[catIds[i]];\r\n        }\r\n\r\n        return allCats;\r\n    }\r\n\r\n    function createCat(string memory _id, string memory _name, string memory _color, string memory _catType, uint8 _age) public {\r\n        require(bytes(_id).length > 0, \"ID must not be empty\");\r\n        require(\r\n            bytes(cats[_id].id).length == 0,\r\n            \"Cat already exists\"\r\n        );\r\n\r\n        catIds.push(_id);\r\n        cats[_id] = CatInfo(_id, _name, _color, _catType, _age);\r\n    }\r\n\r\n    function findCatById(string memory _id) public view returns (string memory, string memory, string memory, string memory, uint8) {\r\n        require(bytes(_id).length > 0, \"ID must not be empty\");\r\n\r\n        CatInfo memory cat = cats[_id];\r\n        require(bytes(cat.id).length != 0, \"Cat not found\");\r\n\r\n        return (cat.id, cat.name, cat.color, cat.catType, cat.age);\r\n    }\r\n\r\n    function updateCat(string memory _id, string memory _name, string memory _color, string memory _catType, uint8 _age) public {\r\n        require(bytes(_id).length > 0, \"ID must not be empty\");\r\n\r\n        \r\n        CatInfo storage cat = cats[_id];\r\n        require(bytes(cat.id).length != 0, \"Cat not found\");\r\n\r\n        cat.name = _name;\r\n        cat.color = _color;\r\n        cat.catType = _catType;\r\n        cat.age = _age;\r\n    }\r\n\r\n    function deleteCat(string memory _id) public {\r\n        require(bytes(_id).length > 0, \"ID must not be empty\");\r\n\r\n        CatInfo storage cat = cats[_id];\r\n        require(bytes(cat.id).length != 0, \"Cat not found\");\r\n\r\n        delete cats[_id];\r\n        \r\n        for (uint i = 0; i < catIds.length; i++) {\r\n            if (\r\n                keccak256(abi.encodePacked(catIds[i])) ==\r\n                keccak256(abi.encodePacked(_id))\r\n            ) {\r\n                if (i != catIds.length - 1) {\r\n                    catIds[i] = catIds[catIds.length - 1];\r\n                }\r\n                catIds.pop();\r\n                break;\r\n            }\r\n        }\r\n    }\r\n}",
  "sourcePath": "D:\\Dev\\HomeTask\\CatAdoption\\Solidity_SmatContract\\contracts\\cat.sol",
  "compiler": {
    "name": "solc",
    "version": "0.5.16+commit.9c3226ce.Emscripten.clang"
  },
  "schemaVersion": "3.4.16",
  "updatedAt": "2024-04-14T00:53:34.332Z",
  "networkType": "ethereum",
  "devdoc": {
    "methods": {}
  },
  "userdoc": {
    "methods": {}
  }
}